{
  "contractName": "Courses",
  "abi": [
    {
      "inputs": [],
      "payable": true,
      "stateMutability": "payable",
      "type": "constructor"
    },
    {
      "anonymous": false,
      "inputs": [
        {
          "indexed": false,
          "internalType": "address",
          "name": "publisher",
          "type": "address"
        },
        {
          "indexed": false,
          "internalType": "uint256",
          "name": "index",
          "type": "uint256"
        },
        {
          "indexed": false,
          "internalType": "string",
          "name": "title",
          "type": "string"
        },
        {
          "indexed": false,
          "internalType": "uint256",
          "name": "price",
          "type": "uint256"
        }
      ],
      "name": "AddCourse",
      "type": "event"
    },
    {
      "anonymous": false,
      "inputs": [
        {
          "indexed": false,
          "internalType": "address",
          "name": "buyer",
          "type": "address"
        },
        {
          "indexed": false,
          "internalType": "uint256",
          "name": "index",
          "type": "uint256"
        },
        {
          "indexed": false,
          "internalType": "string",
          "name": "title",
          "type": "string"
        }
      ],
      "name": "BuyCourse",
      "type": "event"
    },
    {
      "constant": true,
      "inputs": [
        {
          "internalType": "uint256",
          "name": "",
          "type": "uint256"
        }
      ],
      "name": "course_for_public_list",
      "outputs": [
        {
          "internalType": "address payable",
          "name": "publisher",
          "type": "address"
        },
        {
          "internalType": "string",
          "name": "title",
          "type": "string"
        },
        {
          "internalType": "uint256",
          "name": "price",
          "type": "uint256"
        }
      ],
      "payable": false,
      "stateMutability": "view",
      "type": "function"
    },
    {
      "constant": true,
      "inputs": [],
      "name": "course_num",
      "outputs": [
        {
          "internalType": "uint256",
          "name": "",
          "type": "uint256"
        }
      ],
      "payable": false,
      "stateMutability": "view",
      "type": "function"
    },
    {
      "constant": true,
      "inputs": [],
      "name": "name",
      "outputs": [
        {
          "internalType": "string",
          "name": "",
          "type": "string"
        }
      ],
      "payable": false,
      "stateMutability": "view",
      "type": "function"
    },
    {
      "constant": true,
      "inputs": [],
      "name": "symbol",
      "outputs": [
        {
          "internalType": "string",
          "name": "",
          "type": "string"
        }
      ],
      "payable": false,
      "stateMutability": "view",
      "type": "function"
    },
    {
      "constant": false,
      "inputs": [
        {
          "internalType": "string",
          "name": "title",
          "type": "string"
        },
        {
          "internalType": "string",
          "name": "content",
          "type": "string"
        },
        {
          "internalType": "string",
          "name": "answer",
          "type": "string"
        },
        {
          "internalType": "uint256",
          "name": "price",
          "type": "uint256"
        }
      ],
      "name": "addCourse",
      "outputs": [],
      "payable": false,
      "stateMutability": "nonpayable",
      "type": "function"
    },
    {
      "constant": false,
      "inputs": [
        {
          "internalType": "uint256",
          "name": "index",
          "type": "uint256"
        }
      ],
      "name": "buyCourse",
      "outputs": [
        {
          "internalType": "string",
          "name": "",
          "type": "string"
        }
      ],
      "payable": true,
      "stateMutability": "payable",
      "type": "function"
    }
  ],
  "bytecode": "0x60806040526040518060400160405280600d81526020017f5765623320436f757273656573000000000000000000000000000000000000008152506000908051906020019061004f9291906100a6565b506040518060400160405280600881526020017f436f7572736545530000000000000000000000000000000000000000000000008152506001908051906020019061009b9291906100a6565b50600060025561014b565b828054600181600116156101000203166002900490600052602060002090601f016020900481019282601f106100e757805160ff1916838001178555610115565b82800160010185558215610115579182015b828111156101145782518255916020019190600101906100f9565b5b5090506101229190610126565b5090565b61014891905b8082111561014457600081600090555060010161012c565b5090565b90565b610fba806200015b6000396000f3fe6080604052600436106100555760003560e01c8063051c2d1c1461005a57806306fdde031461025a5780630ec7b228146102ea578063194d73a2146103155780632b459b01146103bc57806395d89b41146104aa575b600080fd5b34801561006657600080fd5b506102586004803603608081101561007d57600080fd5b810190808035906020019064010000000081111561009a57600080fd5b8201836020820111156100ac57600080fd5b803590602001918460018302840111640100000000831117156100ce57600080fd5b91908080601f016020809104026020016040519081016040528093929190818152602001838380828437600081840152601f19601f8201169050808301925050505050505091929192908035906020019064010000000081111561013157600080fd5b82018360208201111561014357600080fd5b8035906020019184600183028401116401000000008311171561016557600080fd5b91908080601f016020809104026020016040519081016040528093929190818152602001838380828437600081840152601f19601f820116905080830192505050505050509192919290803590602001906401000000008111156101c857600080fd5b8201836020820111156101da57600080fd5b803590602001918460018302840111640100000000831117156101fc57600080fd5b91908080601f016020809104026020016040519081016040528093929190818152602001838380828437600081840152601f19601f8201169050808301925050505050505091929192908035906020019092919050505061053a565b005b34801561026657600080fd5b5061026f610802565b6040518080602001828103825283818151815260200191508051906020019080838360005b838110156102af578082015181840152602081019050610294565b50505050905090810190601f1680156102dc5780820380516001836020036101000a031916815260200191505b509250505060405180910390f35b3480156102f657600080fd5b506102ff6108a0565b6040518082815260200191505060405180910390f35b6103416004803603602081101561032b57600080fd5b81019080803590602001909291905050506108a6565b6040518080602001828103825283818151815260200191508051906020019080838360005b83811015610381578082015181840152602081019050610366565b50505050905090810190601f1680156103ae5780820380516001836020036101000a031916815260200191505b509250505060405180910390f35b3480156103c857600080fd5b506103f5600480360360208110156103df57600080fd5b8101908080359060200190929190505050610cc3565b604051808473ffffffffffffffffffffffffffffffffffffffff1673ffffffffffffffffffffffffffffffffffffffff16815260200180602001838152602001828103825284818151815260200191508051906020019080838360005b8381101561046d578082015181840152602081019050610452565b50505050905090810190601f16801561049a5780820380516001836020036101000a031916815260200191505b5094505050505060405180910390f35b3480156104b657600080fd5b506104bf610da5565b6040518080602001828103825283818151815260200191508051906020019080838360005b838110156104ff5780820151818401526020810190506104e4565b50505050905090810190601f16801561052c5780820380516001836020036101000a031916815260200191505b509250505060405180910390f35b610542610e43565b6040518060a001604052803373ffffffffffffffffffffffffffffffffffffffff168152602001868152602001858152602001848152602001838152509050610589610e88565b60405180606001604052803373ffffffffffffffffffffffffffffffffffffffff1681526020018781526020018481525090508160036000600254815260200190815260200160002060008201518160000160006101000a81548173ffffffffffffffffffffffffffffffffffffffff021916908373ffffffffffffffffffffffffffffffffffffffff1602179055506020820151816001019080519060200190610635929190610ebf565b506040820151816002019080519060200190610652929190610ebf565b50606082015181600301908051906020019061066f929190610ebf565b50608082015181600401559050508060046000600254815260200190815260200160002060008201518160000160006101000a81548173ffffffffffffffffffffffffffffffffffffffff021916908373ffffffffffffffffffffffffffffffffffffffff16021790555060208201518160010190805190602001906106f6929190610ebf565b506040820151816002015590505060016002600082825401925050819055507fa05eda8acf61f383d1c106c242b6524baa85656a32785ddf3ab09bb6dbf8c25f336001600254038886604051808573ffffffffffffffffffffffffffffffffffffffff1673ffffffffffffffffffffffffffffffffffffffff16815260200184815260200180602001838152602001828103825284818151815260200191508051906020019080838360005b838110156107bd5780820151818401526020810190506107a2565b50505050905090810190601f1680156107ea5780820380516001836020036101000a031916815260200191505b509550505050505060405180910390a1505050505050565b60008054600181600116156101000203166002900480601f0160208091040260200160405190810160405280929190818152602001828054600181600116156101000203166002900480156108985780601f1061086d57610100808354040283529160200191610898565b820191906000526020600020905b81548152906001019060200180831161087b57829003601f168201915b505050505081565b60025481565b60606108b0610e43565b600360008481526020019081526020016000206040518060a00160405290816000820160009054906101000a900473ffffffffffffffffffffffffffffffffffffffff1673ffffffffffffffffffffffffffffffffffffffff1673ffffffffffffffffffffffffffffffffffffffff168152602001600182018054600181600116156101000203166002900480601f0160208091040260200160405190810160405280929190818152602001828054600181600116156101000203166002900480156109bd5780601f10610992576101008083540402835291602001916109bd565b820191906000526020600020905b8154815290600101906020018083116109a057829003601f168201915b50505050508152602001600282018054600181600116156101000203166002900480601f016020809104026020016040519081016040528092919081815260200182805460018160011615610100020316600290048015610a5f5780601f10610a3457610100808354040283529160200191610a5f565b820191906000526020600020905b815481529060010190602001808311610a4257829003601f168201915b50505050508152602001600382018054600181600116156101000203166002900480601f016020809104026020016040519081016040528092919081815260200182805460018160011615610100020316600290048015610b015780601f10610ad657610100808354040283529160200191610b01565b820191906000526020600020905b815481529060010190602001808311610ae457829003601f168201915b5050505050815260200160048201548152505090508060800151341415610c5a57806000015173ffffffffffffffffffffffffffffffffffffffff166108fc82608001519081150290604051600060405180830381858888f19350505050158015610b70573d6000803e3d6000fd5b507f47055554110091a6ac46c28fc31a50ed5cfac92425ee2e740be743b70df0de3533848360200151604051808473ffffffffffffffffffffffffffffffffffffffff1673ffffffffffffffffffffffffffffffffffffffff16815260200183815260200180602001828103825283818151815260200191508051906020019080838360005b83811015610c11578082015181840152602081019050610bf6565b50505050905090810190601f168015610c3e5780820380516001836020036101000a031916815260200191505b5094505050505060405180910390a18060400151915050610cbe565b3373ffffffffffffffffffffffffffffffffffffffff166108fc349081150290604051600060405180830381858888f19350505050158015610ca0573d6000803e3d6000fd5b50604051806060016040528060218152602001610f65602191399150505b919050565b60046020528060005260406000206000915090508060000160009054906101000a900473ffffffffffffffffffffffffffffffffffffffff1690806001018054600181600116156101000203166002900480601f016020809104026020016040519081016040528092919081815260200182805460018160011615610100020316600290048015610d955780601f10610d6a57610100808354040283529160200191610d95565b820191906000526020600020905b815481529060010190602001808311610d7857829003601f168201915b5050505050908060020154905083565b60018054600181600116156101000203166002900480601f016020809104026020016040519081016040528092919081815260200182805460018160011615610100020316600290048015610e3b5780601f10610e1057610100808354040283529160200191610e3b565b820191906000526020600020905b815481529060010190602001808311610e1e57829003601f168201915b505050505081565b6040518060a00160405280600073ffffffffffffffffffffffffffffffffffffffff168152602001606081526020016060815260200160608152602001600081525090565b6040518060600160405280600073ffffffffffffffffffffffffffffffffffffffff16815260200160608152602001600081525090565b828054600181600116156101000203166002900490600052602060002090601f016020900481019282601f10610f0057805160ff1916838001178555610f2e565b82800160010185558215610f2e579182015b82811115610f2d578251825591602001919060010190610f12565b5b509050610f3b9190610f3f565b5090565b610f6191905b80821115610f5d576000816000905550600101610f45565b5090565b9056fe77726f6e6720616d6f756e74206f662045544820746f6b656e7320706169642121a265627a7a723158200a62fc65aa4b68728dc577ee783c246db24e2d8467c1651d4b944064ce25b30564736f6c63430005100032",
  "source": "pragma solidity ^0.5.0;\r\n\r\ncontract Courses {\r\n    string public name = \"Web3 Coursees\";\r\n    string public symbol = \"CourseES\";\r\n\r\n    struct Course {      // 在后台存储的课程内容\r\n        address payable publisher;\r\n        string title;\r\n        string content;\r\n        string answer;\r\n        uint price;     // 单位：wei\r\n    }\r\n\r\n    struct CourseForPublic {     // 在前端公开的课程内容\r\n        address payable publisher;\r\n        string title;\r\n        uint price;\r\n    }\r\n\r\n    event AddCourse (\r\n        address publisher,\r\n        uint index,\r\n        string title,\r\n        uint price\r\n    );\r\n\r\n    event BuyCourse (\r\n        address buyer,\r\n        uint index,\r\n        string title\r\n    );\r\n\r\n    uint public course_num = 0;\r\n    mapping(uint => Course) course_list;\r\n    mapping(uint => CourseForPublic) public course_for_public_list;\r\n\r\n    constructor() public payable {}\r\n\r\n    function addCourse(string memory title, \r\n                      string memory content,\r\n                      string memory answer,\r\n                      uint price) public {\r\n        Course memory new_course = Course(msg.sender, title, content, answer, price);\r\n        CourseForPublic memory new_course_for_public = CourseForPublic(msg.sender, title, price);\r\n        course_list[course_num] = new_course;\r\n        course_for_public_list[course_num] = new_course_for_public;\r\n        course_num += 1;\r\n        emit AddCourse(msg.sender, course_num-1, title, price);\r\n    }\r\n\r\n    function buyCourse(uint index) public payable returns (string memory) {\r\n        Course memory course = course_list[index];\r\n        // 确认买家付了正确的钱给合约，合约再付钱给卖家；否则将钱退回给买家\r\n        if (msg.value == course.price) {\r\n            course.publisher.transfer(course.price);\r\n            emit BuyCourse(msg.sender, index, course.title);\r\n            return course.content;\r\n        }\r\n        else { \r\n            msg.sender.transfer(msg.value);\r\n            return \"wrong amount of ETH tokens paid!!\";\r\n        }\r\n    }\r\n}",
  "sourcePath": "D:\\大信科\\课程\\网络与信息安全\\大作业\\eth_swap\\src\\contracts\\Courses.sol",
  "compiler": {
    "name": "solc",
    "version": "0.5.16+commit.9c3226ce.Emscripten.clang"
  },
  "schemaVersion": "3.0.23",
  "updatedAt": "2022-06-07T14:34:52.446Z",
  "networkType": "ethereum",
  "devdoc": {
    "methods": {}
  },
  "userdoc": {
    "methods": {}
  }
}